S00B00005049522E737265632E
S113000012C024C023C022C021C020C01FC01EC0F3
S11300101DC01CC01BC01AC019C018C017C016C010
S113002015C014C013C011241FBECFE5D4E0DEBF39
S1130030CDBF10E0A0E6B0E0E2E9F1E002C0059037
S11300400D92AA38B107D9F776D0A1C0D9CF9C01B7
S1130050207F332728BB98B3969596959E5F98BBCF
S1130060E3EFF1E03197F1F700C0000098B392504C
S113007098BB8295807F88BB88B3869586958E5F72
S113008088BB83EF91E00197F1F700C0000088B3CB
S1130090825088BB089582E090E0D9DF88E290E046
S11300A0D6DF8CE090E0D3DF86E090E0D0DF0895E7
S11300B09C01207F332728BB28B3269526952D5FE6
S11300C028BBE3EFF1E03197F1F700C0000028B35B
S11300D0235028BB82959295907F9827807F9827FC
S11300E088BB88B3869586958D5F88BB83EF91E046
S11300F00197F1F700C0000088B3835088BB0895CE
S1130100CF93DF93EC018881882331F0219690E02E
S1130110CFDF89918111FBCFDF91CF91089588E1E1
S11301208AB98EE880BD85E089B910BC08955D9BCD
S1130130FECF8CB908958FEF87BB81BB8EEF84BB54
S1130140AADFEDDF80E890E082DF80E690E0D8DF90
S113015083B38130A9F480EC90E079DF88E690E005
S1130160CFDF81E4E4DF87EA91E60197F1F700C08D
S1130170000087EA91E60197F1F700C00000E8CF9C
S113018080EC90E064DF89E790E0BADFE1CFF89497
S1050190FFCF9B
S113019257454C434F4D450044455445435445440B
S11301A22020202020202020004E4F54204445545B
S10D01B2454354454420202020005A
S9030000FC
